:020000040800F2
:10000000780D0020090100086F130008FB1200089A
:100010006D130008830200084D1C0008000000005A
:100020000000000000000000000000009917000818
:10003000AD0200080000000071130008F11900086B
:100040002301000823010008230100082301000800
:1000500023010008230100082301000823010008F0
:1000600023010008230100082301000823010008E0
:1000700023010008230100082301000823010008D0
:1000800023010008230100082301000823010008C0
:1000900023010008230100082301000823010008B0
:1000A00023010008230100082301000823010008A0
:1000B0002301000823010008230100082301000890
:1000C0002301000823010008230100082301000880
:1000D0002301000823010008230100082301000870
:1000E0002301000823010008230100082301000860
:1000F00023010008DFF80CD000F092F80048004718
:1001000049290008780D0020064880470648004726
:10011000FEE7FEE7FEE7FEE7FEE7FEE7FEE7FEE7B7
:10012000FEE7FEE7491A0008F500000840EA01036F
:100130009B0703D009E008C9121F08C0042AFAD29D
:1001400003E011F8013B00F8013B521EF9D2704761
:10015000D2B201E000F8012B491EFBD27047002209
:10016000F6E710B513460A4604461946FFF7F0FFB6
:10017000204610BD10B5002200E0521C835C8C5C50
:10018000A34201D1002BF8D1D8B2E1B2401A10BD80
:1001900030B504460020034600E05B1C934203D2C6
:1001A000E05CCD5C401BF8D030BD034611F8012B5C
:1001B00000F8012B002AF9D1184670472DE9F05FAD
:1001C0000546002092469B468846064681464024C6
:1001D0001BE0284641464746224600F042F8534677
:1001E0005A46C01A914110D311461846224600F0D3
:1001F00029F82D1A67EB01084F46224601200021FD
:1002000000F020F817EB00094E41201EA4F1010474
:10021000DFDC484631462A464346BDE8F09F0000F1
:10022000064C074D06E0E06840F0010394E8070043
:1002300098471034AC42F6D3FFF760FF002A00085D
:10024000202A0008202A04DB203A00FA02F10020CC
:1002500070479140C2F1200320FA03F31943904004
:100260007047202A04DB203A21FA02F0002170476F
:1002700021FA02F3D040C2F120029140084319460E
:100280007047FEE730B504460020651804E000BF63
:1002900014F8011B01F0CAFCAC42F9D3002101F0B3
:1002A000C5FCBDE83040002101F0C0BC704770477C
:1002B0007FB500250446009500F054F90A48CDE9C1
:1002C0000154001B000A0390694601A800F0E2F8FF
:1002D00028B106A1002001F089F90120009000F06A
:1002E00019F9009804B070BD00000208464C415353
:1002F000485F49665F4572617365213D2048414C06
:100300005F4F4B200D0A00002DE9F041164688464C
:100310000546002400F026F9104F16E058F8242076
:100320002946022000F000F910B10320BDE8F08159
:1003300058F824002968814205D009A1002001F065
:1003400055F90220F2E7641C2D1DB44201D2BD42D2
:10035000E4D900F0DFF80020E8E70000FCFF010826
:10036000466C61736820636F6E74656E7420646F91
:1003700065736E2774206D61746368205352414D1C
:1003800020636F6E74656E7420210A0D00000000FA
:10039000074900224A6107490B6843F400730B6068
:1003A0000B6843F008030B6020F0FF000260704709
:1003B00060090020043C0240134A00211068C30574
:1003C000124804D5416941F0020141619115136859
:1003D0009B0505D5436943F00103436141F4007176
:1003E00013681B0505D5436943F00403436141F4D9
:1003F000006113689B0405D5436943F01003436112
:1004000041F4005111607047183C0240600900201F
:1004100070B5054600F034FA0646134C09E0681C36
:1004200007D025B100F02CFA801BA84201D9032087
:1004300070BD2068C007F2D12068800701D5022076
:1004400020602068C00508D42068000505D4206815
:10045000800402D42068800503D5FFF7ADFF01209A
:1004600070BD002070BD0000183C0240084A10B565
:100470004FF0FF30106000211160121F10601160FA
:10048000121F1060116000F03BFA002010BD000048
:10049000183802402DE9F0471C4E05460F46307CC7
:1004A000012808D0012030744CF250384046FFF744
:1004B000AFFF18B127E00220BDE8F0874FF0FF3111
:1004C0003960C146DFF848806C6816E02046FFF7C7
:1004D0005FFF4846FFF79CFFD8F8002022F0080293
:1004E000C8F80020D8F8002022F40072C8F80020D4
:1004F00008B13C6007E004F58074D5E9011201EB16
:100500000221A142E2D800213174D5E76009002020
:10051000043C02400348016841F0020101600020F0
:1005200070470000043C02402DE9F0410C4C164697
:100530000F46207C012809D0012020744CF250384D
:100540004046FFF765FF002518B107E00220BDE82F
:10055000F08165613E604046FFF75AFF2574F6E77B
:10056000600900200E480168890716D50168C9078F
:1005700008D00B490B4A08310A600B4A0A6001682F
:10058000C90708D10649094A0C310A60084A0A60BD
:100590000068800701D501207047002070470000E7
:1005A000043C0240EFCDAB8905040302BFAE9D8C35
:1005B000161514132DE9F84F00230126DFF818C192
:1005C0000F2782E006FA03F414EA01027CD023F03C
:1005D00003056544AA46D5F808909D074FEA157EA5
:1005E00007FA0EF505EA090B00953C4DA84202D129
:1005F0004FF0000819E03A4DA84202D14FF001082F
:1006000013E0384DA84202D14FF002080DE0364DFC
:10061000A84202D14FF0030807E0344DA84202D1AE
:100620004FF0040801E04FF0050808FA0EF8D8452D
:1006300026D1DDF80080DAF8089029EA0809CAF81E
:100640000890DFF8AC80D8F8009029EA0209C8F8D1
:10065000009008F10408D8F8009029EA0209C8F8C7
:10066000009008F10408D8F8009029EA0209C8F8B7
:10067000009008F10408D8F800509543C8F80050DD
:10068000D0F800804FEA4309032202FA09F228EA6F
:100690000208C0F80080DD0800EB8505AA46D5F801
:1006A00020804FEA43794FEAD96907FA09F528EA29
:1006B0000508CAF820808568954385604568A5438C
:1006C0004560C4689443C4605B1C31FA03F27FF454
:1006D00079AFBDE8F88F0000000001400000024043
:1006E0000004024000080240000C024000100240DA
:1006F000000401402DE9F84FDFF864B100234FF00A
:10070000010C4FF0030A4FF00F090BF1040EA0E0AB
:100710000CFA03F6324072D04C68022C01D0122C35
:100720000ED1DC0800EB8408D8F820405D07EF0EFE
:1007300009FA07F5AC430D69BD402543C8F82050C0
:1007400007685D0091F804800AFA05F408F00308D0
:10075000A74308FA05F848EA0708C0F800804F6880
:10076000012F05D0022F03D0112F01D0122F11D14C
:100770008768D1F80C80A74308FA05F848EA07080B
:10078000C0F808804768B7430E79C6F300169E404C
:100790003E434660C668A6438C68AC403443C460A0
:1007A0004C68E40054D52F4C256845F001052560C0
:1007B000246823F0030504F0010400942A4C254426
:1007C000AF689C07240F09FA04F6B743274EB042DE
:1007D00001D1002615E0264EB04201D1012610E0DD
:1007E000244EB04201D102260BE0234EB04201D18B
:1007F000032606E0214EB04202D1042601E027E0A4
:100800000526A6403E43AE60DBF800405D464E68DC
:100810009443F60300D514432C60DEF8004075467F
:100820004E689443B60300D514432C600C4D083534
:100830002C684E689443F60200D514432C60084D92
:100840000C352C684E689443B60200D514432C60D6
:100850005B1C0A6832FA03F47FF45AAFBDE8F88FE4
:100860000004014020380240000001400000024026
:100870000004024000080240000C02400010024048
:1008800001488068704700000C0000200248816821
:1008900042681144816070470C00002010B50024AC
:1008A000032000F06DF8002000F008F808B10124E2
:1008B00001E000F027F8204610BD000070B50E4E94
:1008C00005460024706898B14FF47A71B1FBF0F0DE
:1008D0000A490968B1FBF0F000F0ACFB40B9102DFB
:1008E00006D200222946501E00F02AF8356000E0AA
:1008F0000124204670BD00000C00002018000020DC
:10090000704700000D4808B5016841F000410160E2
:10091000016801F000410091011F0A6842F00102E4
:100920000A60096801F001010091016841F08051FD
:100930000160006800F08050009008BD243802403B
:10094000F0B40E4B1B680C46C3F30223C3F107053A
:10095000042D00D90425191D072901D2002300E028
:10096000DB1E012606FA05F1491E214099409E40F2
:10097000761E16403143F0BC01F04EBC0CED00E099
:10098000064900F0070208684FF6FF03184040EAE6
:100990000220034A10430860704700000CED00E09D
:1009A0000000FA05BFF34F8F05480168054A01F4BE
:1009B000E06111430160BFF34F8F00BFFDE700000E
:1009C0000CED00E00400FA052DE9F0470E460500A5
:1009D00079D0DFF88481D8F8000000F00100B0423F
:1009E00014D2012E05D1D8F8001041F00401C8F846
:1009F0000010D8F8001021F001013143C8F80010B0
:100A0000D8F8000000F00100B0425CD12878534CC7
:100A1000800705D52068A96820F0F0000843206011
:100A20002878C0075CD04D496868083902281AD078
:100A300003281BD0096801281BD08905002966DA24
:100A4000216821F0030101432160FFF719FF696864
:100A5000074641F28830022914D0032920D0012909
:100A600081462AD038E009688903E7E709688901E7
:100A7000E4E78907E2E700BFFFF702FFC11B494532
:100A800001D926E081462068C0F381000228F3D115
:100A900026E000BFFFF7F4FEC11B494501D918E06D
:100AA00081462068C0F381000328F3D118E000BF1D
:100AB000FFF7E6FEC11B49450BD82068C0F3810053
:100AC0000128F5D10CE022E0FFF7DAFEC11B494511
:100AD00002D90320BDE8F087206810F00C0FF3D195
:100AE000D8F80010404601F00101B14211D9012EA1
:100AF00003D1016841F004010160016821F00101A6
:100B000031430160006800F00100B04201D00120D3
:100B1000E0E72878400705D52068E96820F4E06020
:100B2000084320602878000706D52068296920F44A
:100B3000605040EAC100206000F038F82168084A9F
:100B4000C1F30311515CC8400649086006480068BB
:100B5000BDE8F047FFF7B2BE003C02400838024053
:100B6000E5290008180000200C0000200448054971
:100B700000680968044AC1F30221515CC84070470B
:100B80001800002008380240F529000804480549EB
:100B900000680968044AC1F3C221515CC84070472B
:100BA0001800002008380240F5290008134A11688F
:100BB00001F00C0004280CD008280CD00C280CD014
:100BC000101F0068C0F342314FF40040491C8840B8
:100BD00070470B4870470B4870470B48C1F383437D
:100BE0001268C05CC1F38151491CD20301D5054A8A
:100BF00000E0034A5043B0FBF1F070470838024070
:100C00000024F40000366E01DC2900082DE9F84FBD
:100C100004007DD0FC480168006801F00C0700F476
:100C200080362078F94DC00741D0082F12D00C2F04
:100C300002D1B6F5803F0DD06068012811D008B10F
:100C4000052818D0286820F480302860286820F40F
:100C5000802009E02868800329D560680028D8D062
:100C600025E0286840F480302860606890B1FFF784
:100C700007FE80460AE0286840F480202860F0E7FC
:100C8000FFF7FEFDA0EB080064287BD828688003EE
:100C9000F6D50CE0FFF7F4FD804605E0FFF7F0FD28
:100CA000A0EB08006428F0D828688003F6D42078E8
:100CB000DFF85CB3DFF85C8380074FF001094FF089
:100CC000000A35D5042F0AD00C2F00D13EB1E068C0
:100CD000F8B1C8F80090FFF7D3FD06460BE028688E
:100CE00080070BD5E068012812D107E0FFF7C8FDA7
:100CF000801B0228C9D828688007F7D5DBF80010C8
:100D0000226921F4F85141EA0221CBF800100FE0EA
:100D100077E1C8F800A0FFF7B3FD064605E000BF85
:100D2000FFF7AEFD801B0228AFD828688007F7D4F4
:100D30002078C00674D53FB1A069E0B3C8F8209010
:100D4000FFF79EFD06464AE02868800502D5A069A7
:100D5000002884D0206ADBF800105E4601F4604170
:100D6000884210D900F012FB0028BDD13068216AFA
:100D700020F4604008433060217F306861F31F60D9
:100D800030600FE096E0316821F46041014331604A
:100D9000217F306861F31F603060206A00F0F6FA4E
:100DA0000028A1D1216A4FF4004009EB513188405D
:100DB0009549096800E025E0974AC1F30311515CA9
:100DC000C8409649086096480068FFF777FD0028FC
:100DD0006FD125E0FFF754FD801B02286AD82868F0
:100DE0008005F7D5DBF80010226A21F46041114339
:100DF000CBF80010227FDBF8001062F31F61CBF804
:100E000000100DE0C8F820A0FFF73AFD064604E008
:100E1000FFF736FD801B02284CD828688005F7D4E0
:100E20002078804E000722D57F48616981B1C0F8E3
:100E30000090FFF725FD834606E000BFFFF720FD89
:100E4000A0EB0B00022835D830688007F6D50EE0FD
:100E5000C0F800A0FFF714FD834605E0FFF710FD82
:100E6000A0EB0B00022825D830688007F6D4207844
:100E700040076DD56B484FF0000B10380068C0007C
:100E80000BD468481038016841F080510160006857
:100E90004FF0010B00F08050009064480168C905D4
:100EA00014D4016841F480710160FFF7E9FC0090FF
:100EB00008E08DE079E000BFFFF7E2FC0099401AFE
:100EC000642872D859480068C005F5D5A068012883
:100ED0000AD008B1052811D0306820F48070306045
:100EE000306820F4806002E0306840F48070306048
:100EF000A068A8B1FFF7C4FC00900DE0306840F492
:100F000080603060F0E700BFFFF7BAFC0099411A3B
:100F100041F2883081425AD830688005F4D50EE01D
:100F2000FFF7AEFC009007E0FFF7AAFC0099411A1A
:100F300041F2883081424AD830688005F4D4BBF150
:100F4000000F05D037481038016821F0805101604A
:100F5000606A58B30C2F41D00228504605D0C8F81B
:100F60006000FFF78DFC044634E04746C8F8600097
:100F7000FFF786FC064604E0FFF782FC801B022890
:100F800025D828688001F7D4D4E90A1001431E4807
:100F9000226B036823F47D031A4311430160C7F8F1
:100FA0006090FFF76DFC044607E010E040E000BFF2
:100FB000FFF766FC001B022809D828688001F7D5D6
:100FC00036E000BFFFF75CFC001B022802D90320BB
:100FD000BDE8F88F28688001F4D429E00128F7D013
:100FE00009480068A26A00F48031914209D1E26A9E
:100FF00000F47011914204D1216B00F4400088424A
:1010000016D00120E4E70000083802400038024012
:101010000438024000004742E5290008180000207B
:101020000C00002034380240800647420070004027
:101030000020CDE710B5401EB0F1807F01D3012024
:1010400010BD4FF0E02460610F21601701F0E4F85B
:101050000020A06107202061002010BD10B5040011
:1010600013D0242084F839002068C16821F400518D
:10107000C160204600F03CF80020E06384F83900AD
:1010800084F83A0084F8380010BD012010BD70B516
:10109000040004D094F83900002510B106E00120C6
:1010A00070BD84F83850204600F038F8242084F8C9
:1010B00039002068C16821F40051C160204600F069
:1010C000EBFC2068016921F49041016120684169CD
:1010D00021F02A0141612068C16841F40051C160DA
:1010E000E563202084F8390084F83A00002070BDC0
:1010F00000680749884209D10648016821F4804107
:1011000001604FF4C0610448FFF754BA7047000013
:1011100000380140203802400000024010B586B07F
:10112000044614216846FFF71AF8144920688842DB
:1011300021D11348016841F480410160006800F446
:10114000804005900E48001F016841F001010160D8
:101150000068694600F0010005904FF4C0600090FF
:1011600002200190012002900320039007200490A8
:101170000448FFF7BFFA06B010BD00000038014078
:1011800020380240000002402DE9F843044690F860
:101190003A00994616460D4620284FD195B18EB19A
:1011A00094F83800012849D0012084F8380000273D
:1011B000E763222084F83A00FFF762FBA6858046A9
:1011C000E68531E00120BDE8F883E08D401EE08532
:1011D000A0684346B0F5805F4FF000024FF0200159
:1011E0002046CDF8009004D000F0EEFC98B103202A
:1011F000E9E700F0E9FC0028F9D12069002820681F
:10120000406803D0C1B225F8011B0DE0C0F308010E
:1012100025F8021B08E0206900282068406801D0FA
:1012200000F07F0005F8010BE08D0028CDD12020D3
:1012300084F83A0084F838700020C4E70220C2E73E
:101240002DE9F843044690F839001F4616460D462E
:10125000202850D1A5B19EB194F8380001284AD079
:10126000012084F838004FF00008C4F83C802120A9
:1012700084F83900FFF704FBA6848146E68426E063
:101280000120BDE8F883E08C401EE084A0684B4656
:10129000B0F5805F4FF000024FF0800120460097CC
:1012A00003D000F091FCE8B90DE000F08DFCC8B966
:1012B00028882168C0F308004860206908B16D1CC7
:1012C00005E0AD1C03E0216815F8010B4860E08CD7
:1012D0000028D8D14B46002240212046009700F03C
:1012E00073FC08B10320CCE7202084F8390084F88F
:1012F00038800020C5E70220C3E7FEE704494868BC
:10130000044A50601060096881F3088800470000B3
:101310000030000800000020054808B5016841F0D1
:1013200001010160006800F00100009008BD0000AC
:101330001C3802400C4810B50A4901604FF4E131F5
:101340004160002181600C22C160C0E9041281610A
:10135000C161FFF79CFE002803D0BDE81040FEF7F6
:10136000A6BF10BD0038014020090020FEE77047ED
:101370007047000010B50448FFF770FEFFF776F8DD
:10138000012080F3108810BD2009002038B51C49C9
:10139000002309681B4A11F0F00F23D118491C31B2
:1013A0000C68E500184C03D5216801F4C0540EE028
:1013B0000D6845F080550D600D6805F0805500956D
:1013C00024680D6804F4C05425F080550D60B4F510
:1013D000C05F07D1B0F5404F04D11068012340F041
:1013E00004001060106820F00100184310601068BD
:1013F00000F00100984201D0012038BD002038BD26
:1014000008380240003C0240007000402DE9F843DB
:1014100000240F460646904613460C60012269469A
:101420003348FFF7B1FE05002AD19DF800001828C7
:101430002FD006DC01280AD002280BD0042804D1C2
:1014400022E0412836D0612834D0012533E08024C1
:1014500028A102E04FF4806428A1002000F0C6F823
:101460009DF800003070221D4346B11C2048FFF754
:101470008BFE050021D023A1002000F0B7F8002446
:1014800028463C60BDE8F88327A1002000F0AEF8B4
:101490000BE04346012269461548FFF775FE18B96F
:1014A0009DF80000182803D001259DF8000002E0F7
:1014B000022400E002253070E2E7F178B07881F094
:1014C000FF01884201D01AA10BE03019017940795F
:1014D00000EB01282146301DFEF7D4FE4045CFD059
:1014E0001AA1002000F082F800240125C8E70000BE
:1014F00020090020534F480D0A0000005354580D96
:101500000A00000053696D706C65207061636B6543
:10151000742073616E69747920636865636B2065FC
:1015200072726F720D0A0000454F540D0A000000E0
:101530005041434B45545F4E554D4245525F494ED5
:10154000444558206572726F720D0A004352432061
:101550004572726F720D0A002DE9F04107460B4883
:1015600015460E46007808B900F0CAFCEFF3118466
:10157000202080F311882A463146384600F008F8CA
:10158000E1B281F31188BDE8F08100002000002065
:1015900070B50E46144900EB400001EBC00514463F
:1015A000E86A183520B101280FD0022805D113E0D0
:1015B000284600F0D9FCA04201D2002411E02246C6
:1015C0003146284600F0F6FD0BE0284600F0CCFC42
:1015D000A042F4D20446F2E73146284600F0BDFDB1
:1015E0000446204670BD0000200000200FB408B55E
:1015F00004A900916A46039900F003F801B05DF870
:1016000014FB2DE9F04198B0064607A8029040204F
:101610000025CDE90305CDE9055690460C4614F8A2
:10162000011B002973D0252908D002A800F076FDFF
:1016300005980028F3DA18B0BDE8F08100200121F8
:101640002278232A1ED02B2A19D02D2A02D0302A04
:1016500008D102E040F0010001E040F00200641C0B
:101660000029EDD100222178A1F130030A2B0CD200
:1016700002EB820201EB4202303A641CF3E740F0D5
:101680000400ECE740F00800E9E70023CFB22E2F7A
:101690000BD114F8011FA1F130070A2F05D203EB7B
:1016A000830301EB4303303BF3E76C290DD068293A
:1016B0000BD0702954D00BDC252916D0582931D0F5
:1016C00063290CD0642913D114E014F8011FECE74E
:1016D000732934D075291BD0782909D122E0D8F894
:1016E0000000011DC8F80010017802A800F016FDE6
:1016F000641C9DE7D8F800100F1DC8F80070096839
:10170000CDE900200A2202A800F03AFCF0E733E01D
:10171000D8F800100F1DC8F800700968CDE9002046
:101720000A2208E0D8F800100F1DC8F800700968F8
:10173000CDE90020102202A800F086FCD8E7D8F8F6
:101740000000011DC8F80010076817F8011B0029E8
:10175000CED002A800F0E2FC05980028F5DAC7E731
:10176000D8F80000011DC8F8001001680820CDE974
:10177000000503461022DEE7059800287FF75BAFDF
:10178000049820B1024607A93046FFF7E5FEDDE9DF
:101790000410084405904EE77047000008B500208B
:1017A0001CA10090FFF722FF684600F051FA38B103
:1017B000052826D0042826D0022829D01FA123E0FE
:1017C00026A10020FFF712FFFEF7CCFE4FF05A32A1
:1017D0002C490220FEF7A8FE2A494FF00232091DCB
:1017E0000220FEF7A1FEFEF795FE27480068274974
:1017F0000840B0F1005F03D1FFF7BCFDFFF77EFDAD
:1018000008BD23A100E031A10020FFF7EFFE08BDD5
:1018100034A1F9E757616974696E6720666F7220B9
:101820007468652066696C6520746F20626520733A
:10183000656E74202E2E2E200A0D00004661696C04
:10184000656420746F2072656365697665207468CD
:10185000652066696C65210A0D20000050726F6773
:1018600072616D6D696E6720436F6D706C65746534
:1018700064205375636365737366756C6C79210AB4
:101880000D000000000F0808003000080000FE2FC7
:1018900054686520696D6167652073697A652069A0
:1018A0007320686967686572207468616E20746867
:1018B0006520616C6C6F776564207370616365206F
:1018C0006D656D6F7279210A0D00000056657269B1
:1018D0006669636174696F6E206661696C65642115
:1018E0000A0D000041626F72746564206279207590
:1018F0007365722E0A0D000001B5074890F8391083
:10190000A02902D1202180F83910642301226946E0
:101910000148FFF795FC08BD20090020002201E0E6
:10192000521C92B2815C0029FAD10146642301481D
:10193000FFF786BC20090020F0B5054600242A7870
:1019400020462346302A2ED16A78782A01D0582A98
:1019500029D102241CE000BFA2F14106052E07D9BF
:10196000A2F16107052F03D91136092E04D913E01E
:10197000A2F13007092F01D8303A04E0052E01D832
:10198000373A00E0573A641C02EB03130B2C04D2E5
:101990002A5D002AE0D103E000202A5D002A01D15F
:1019A00001200B60F0BD2A5D62B16B2A01D04B2A89
:1019B00002D10CB19B0205E06D2A01D04D2A04D161
:1019C0001CB11B0501200B600AE0A2F13006092EB4
:1019D0000CD803EB83036FF02F0606EB430313448D
:1019E000641C0B2CDED20128DDD1F0BD0020F0BD3F
:1019F000FEF74CBF30B593B034216846FEF7AFFB1D
:101A000014210DA8FEF7ABFB0E48016821F4C0516C
:101A100041F40061016002200090002401251020A3
:101A20000994CDE903506846FFF7F0F80F20CDE99F
:101A30000E540D90109400210DA81194FEF7C4FFD0
:101A400013B030BD007000400F48016841F4807150
:101A500001600D4908310A680C4B1A400A6002689F
:101A60000B4B1A400260026822F480220260086870
:101A700020F47D0008600020091D086005494FF032
:101A80000060086070470000003802400CC0FF880A
:101A9000FEFFFEEE08ED00E02DE9F041044600688F
:101AA0000169E26821F44051114301612169A06894
:101AB000E26908436169114322680843D16849F229
:101AC0000C6399430143D16020684169A26921F404
:101AD000407111434161E16964253226B1F5004F3F
:101AE0003848216804D081423DD1FFF74FF83CE0EF
:101AF000814202D1FFF74AF801E0FFF737F800EB27
:101B0000C00101EB001160686FF0180C4000B1FBE0
:101B1000F0F3B3FBF5F3B1FBF0F7B1FBF0F203FB2D
:101B20000CF307EB830306EBC303B2FBF5F2B3FB45
:101B3000F5F3120103F0F80302EB4302B1FBF0F3FB
:101B4000B1FBF0F0B0FBF5F000FB0CF003EB800014
:101B500006EBC000B0FBF5F000F007002168104470
:101B60008860BDE8F081FFF701F800EBC00101EBF0
:101B7000001160686FF018078000B1FBF0F2B2FB53
:101B8000F5F2B1FBF0F37A4303EB8202B1FBF0F321
:101B900006EB0212B2FBF5F2B3FBF5F302F0F00232
:101BA00002EB0312B1FBF0F3B1FBF0F0B0FBF5F088
:101BB000784303EB800006EB0010B0FBF5F000F07B
:101BC0000F00CBE7003801402DE9F0419846174659
:101BD0000E460446069D1DE0681C1BD02DB1FEF785
:101BE0004FFEA0EB0800A84214D92068C16821F478
:101BF000D071C1602068416921F00101416120205C
:101C000084F8390084F83A00002084F83800032072
:101C1000BDE8F0812068006836EA000004D00020AA
:101C2000B842D9D00020F3E70120F9E741F48071F0
:101C300041F2210240004900CB0500D5401CC303FE
:101C400000D55040CB03F5D580B27047FEE70000C9
:101C50002DE9F14F002788B0DFF8FCB13E46B946C8
:101C60003C46DFF8F8A1CDF800B064E04FF0000882
:101C700045465DE04FF4FA7201A97948FFF7C6FBCB
:101C800060B1022805D0B9F1000F00D0761C052EF6
:101C90007ED91820FFF730FE182023E0FEF762FC03
:101CA0000122564651460220FEF73EFC30680128CC
:101CB00004D0012231460220FEF736FCFEF72AFC52
:101CC0000198002690B102280BD065498B784345D6
:101CD00016D01520FFF710FE62A10020FFF786FC4A
:101CE00026E00620FFF708FE022421E00620FFF789
:101CF00003FE5EA10020FFF779FC01255DA1ECE762
:101D0000B8F1000F1ED08208091D0098FEF7FCFAFA
:101D1000002874D01820FFF7EFFD1820FFF7ECFD26
:101D20005FF0040408F1010000F0FF084FF0010922
:101D300055EA04009ED057EA040097D009B0204627
:101D4000BDE8F08F087900285AD000204D4B091DBE
:101D500002E01A54401C491C0A780AB14028F8D302
:101D60004FF0000C03F800C0604602AB01E01A54CB
:101D7000401C11F8012F202A01D01028F7D303F8B6
:101D800000C007A91846FFF7D7FD0898006800E0D3
:101D900052E06FF4E831C84211D918208DF81800CC
:101DA0004FF480142346012206A93748FFF748FA6A
:101DB0002346012206A93448FFF742FA0524584673
:101DC000FEF776FA31490120087031A10020FFF7B3
:101DD0000DFCDDE9072036A102600020FFF706FCBC
:101DE0000620FFF789FD21A10020FFF7FFFB43201C
:101DF000FFF782FD32A10020FFF7F8FB92E70AE02F
:101E00000620FFF779FD19A10020FFF7EFFB012560
:101E10002F462CA161E7DDE900010844024600904D
:101E20002FA10020FFF7E2FB10A10020FFF7DEFB4F
:101E30000620FFF761FD75E74320FFF75DFD2F48A2
:101E40000178491C01700078782803D1FFF792FAD5
:101E5000FEF7A8FD1AA140E700300008040F0808AB
:101E6000180500204E414B0D0A00000041434B0D68
:101E70000A00000066696C655F646F6E65090D0A93
:101E800000000000D8040020200900200A000020E3
:101E900065726173652075736572206170706C691D
:101EA000636174696F6E20617265610D0A000000E4
:101EB00066696C6573697A650925640D0A0000001E
:101EC000430D0A0066696C655F646F6E6509736532
:101ED0007373696F6E5F646F6E650D0A00000000BA
:101EE000666C61736864657374696E6174696F6E42
:101EF000093078253038580D0A000000080000200D
:101F000010B5124C03202061606111A0A06104F1A2
:101F1000A800E0614FF4806020620020A06260624F
:101F20000BA12166E06204F59561616610212067CE
:101F3000C4E91A10606709A1E01DFEF736F908A18F
:101F40002046FEF732F92020A07110BD20000020AD
:101F50005465726D696E616C00000000525454004B
:101F600053454747455200000269C1688A4203D879
:101F70008068401A104400E0501A401E704700006C
:101F80002DE9FC5F0E008146DDE90C47C6F100003B
:101F900098469346824600D40846012503E000BFD8
:101FA00090FBFBF06D1C5845FADAA84500D9454670
:101FB00024B1002E01DB780700D5641EB80702D5D6
:101FC000B8F1000F0FD0F8070DD164B1A5420AD2C5
:101FD00020214846641E00F0A1F8D9F80C00002822
:101FE000F3DABDE8FC9FD9F80C000028F9DB002EDD
:101FF00002DA56462D2102E0780707D52B21484604
:1020000000F08CF8D9F80C000028EADB07F0030098
:1020100002280FD1B8F1000F0CD15CB1A54209D252
:1020200030214846641E00F079F8D9F80C000028E9
:10203000F3DAD6E7CDE9004743465A4631464846EB
:1020400000F002F8CDE700002DE9F84F8246DDE907
:102050000A4B0126984691460D460846374602E04F
:10206000B0FBF9F07F1C4845FAD2B84500D9474685
:102070005FEACB7017D1B4B15FEA8B7002D5B8F1CB
:10208000000F02D0202000900BE03020FBE75046EC
:10209000641E009900F042F8DAF80C00002838DBE2
:1020A0000CB1A742F3D3DAF80C00002831DB00BFF3
:1020B000B8F1010F02D9A8F1010803E0B5FBF6F071
:1020C000484502D306FB09F6F2E7DFF84C8000BF73
:1020D000B5FBF6F000FB165518F80010504600F05E
:1020E0001DF8DAF80C00002803DBB6FBF9F6002E29
:1020F000EED15FEACB700CD0002C0AD0A74208D2F8
:1021000020215046641E00F009F8DAF80C0000287F
:10211000F2DABDE8F88F0000CC29000810B50446BB
:10212000D4E90130421C934205D323681954A260BC
:10213000E068401CE060D4E90102824209D12168D4
:102140002069FFF709FAA168884203D04FF0FF30F9
:10215000E06010BD0020A06010BD2DE9F047C4680C
:102160001746894606464FF000083069A04201D95B
:10217000051B02E0B168201A0D1AB0686D1E001B25
:10218000A84200D80546BD4200D33D4670682A46A5
:1021900020444946FDF7CAFFB0687F1B2C44A84481
:1021A000A944A04200D10024F460002FDDD14046B4
:1021B000BDE8F0872DE9F04104468846D4E90207DE
:1021C000C51BE168606816460844B54206D9414619
:1021D000FDF7ACFFB819E060BDE8F0812A46414642
:1021E000FDF7A4FF761B08EB050132466068FDF79A
:1021F0009DFFE660F0E700000FB4054B10B503A9A2
:10220000044A029800F028F810BC5DF814FB0000A6
:10221000312900081C0000200907090E002804DBF2
:1022200000F1E02080F80014704700F00F0000F18A
:10223000E02080F8141D704702E008C8121F08C192
:10224000002AFAD170477047002001E001C1121F37
:10225000002AFBD1704700002DE9FF4F8DB00F46DB
:102260000546002606E025280BD0DDE90F12904731
:102270006D1C761C28780028F5D111B03046BDE8D9
:10228000F08F0024A246A1460122EC4900E004435D
:1022900015F8013F203B02FA03F00842F7D12878F5
:1022A0002A2810D06FF02F022878A0F130010929D8
:1022B00014D80AEB8A0102EB410144F0020400EB5E
:1022C000010A6D1CF0E701CF5FEA000A03D544F470
:1022D0000054CAF1000A44F002046D1C28782E282C
:1022E00017D115F8010F44F004042A280ED06FF01E
:1022F0002F022878A0F1300109290AD809EB8901B9
:1023000002EB410100EB01096D1CF2E757F8049B59
:102310006D1C28786C280FD006DC4C2817D0682854
:102320000DD06A2814D104E0742810D07A280FD177
:102330000DE044F400140AE044F4801401E044F495
:1023400040146978814202D104F580146D1C6D1C23
:102350002A786E2A1FD00CDC632A31D004DC002AD4
:102360008BD0582A11D1A3E0642A68D0692A0CD1F5
:1023700065E0732A2ED004DC6F2A73D0702A04D152
:102380009BE0752A6FD0782A6ED01046DDE90F12D7
:102390009047761C50E1C4F30250022806D003286F
:1023A00009D0042801CF09D0066045E101CFF1171B
:1023B000C0E9006140E101CF06803DE106703BE1EC
:1023C00017F8040B8DF8000000208DF80100EB4693
:1023D000012003E057F804BB4FF0FF3061074FF0D6
:1023E000000102D40DE008F10101884649450FDAE9
:1023F0008045F8DB1BF808100029F4D108E008F14B
:10240000010188468142FADB1BF808100029F6D149
:10241000DDE90F23AAEB08008146214600F036F9DA
:10242000304400EB080604E0DDE90F121BF8010B55
:102430009047B8F10108F7D221464846F7E00A2153
:10244000C4F302534FF0000B0891022B04D001CFCC
:10245000C117032B09D00AE0FF1D27F00707F7E893
:10246000020108E032E01FE020E000B2C117042BB7
:1024700001D140B2C117031E71F1000307DA4FF01A
:10248000000CD0EB0C006CEB01012D2302E02305C6
:1024900004D52B238DF82430012303E0E30701D07A
:1024A0002023F7E7984658E00A2110E010210EE0BB
:1024B00010204FF0000B08900CE010214FF0000BA3
:1024C00044F004044FF00809089103E008214FF09C
:1024D000000B0891C4F30253022B04D001CF00215A
:1024E000032B06D006E0FF1D27F00707F7E80201DF
:1024F00003E080B2042B00D1C0B24FF000082307E4
:102500002BD5702A07D0DDF820C08CF0100C5CEAC7
:102510000B0C05D00EE040238DF82430012308E099
:1025200050EA010306D030238DF824308DF82520A1
:1025300002239846DDF820C08CF0080C5CEA0B0CF6
:102540000BD150EA010301D1630706D530238DF882
:1025500024304FF00108A9F10109582A04D038A20B
:102560000B9208AA0A920BE03AA2F9E75B46089A96
:10257000FDF724FE0B9B9B5C0A9A521E0A92137075
:1025800050EA0102F2D10A98ADEB000000F1200BF5
:10259000600702D524F4803401E04FF00109D945E9
:1025A00002DDA9EB0B0000E0002000EB0B01414431
:1025B0000890AAEB010AE00306D4DDE90F232146C7
:1025C000504600F063F806444FF0000908E009A9FE
:1025D00011F80900DDE90F12904709F10109761C95
:1025E000C145F4DBE0030CD5DDE90F23214650465D
:1025F00000F04CF8064404E0DDE90F12302090476B
:10260000761C0899481E08900029F5DC08E00A9815
:102610000A990078491C0A91DDE90F129047761C4F
:10262000BBF10001ABF1010BF1DC21465046DDE9C5
:102630000F2300F019F806446D1C1BE60928010061
:102640003031323334353637383961626364656628
:1026500000000000303132333435363738394142EA
:1026600043444546000000002DE9F04104460025A2
:102670001E461746880404D405E039462020B0479A
:102680006D1C641EF9D52846BDE8F0812DE9F041A6
:10269000044600251E469046C80301D5302700E0B9
:1026A0002027880404D505E041463846B0476D1C14
:1026B000641EF9D52846BDE8F081000070B5FDF72D
:1026C00051FF134C4FF05A352A4621460220FDF7A0
:1026D0002BFF2068A84204D02A4621460220FDF79D
:1026E00023FFFDF717FF0B4800680B490840B0F1C6
:1026F000005F0BD10648001D0068B0F1013F05D016
:10270000FEF738FEBDE87040FEF7F8BD70BD000072
:10271000000F0808003000080000FE2F2DE9F043EC
:1027200093B040216846FDF71AFD0024454F40F65E
:10273000FF79A0466E4638680168C943090702D48C
:102740000168406811904B46012210A93D48FEF7F0
:102750001BFD0028EFD19DF840003055641CA4B249
:10276000402C15D2052CE6D937A0351900681190F8
:1027700036A0022200681290A81E12A9FDF708FDDB
:102780000028D8D1032211A96846FDF701FD08B140
:102790000024D0E705F8028C2DA16846FDF7EAFC7D
:1027A000D0B12EA16846FDF7E5FCD0B12EA1684658
:1027B000FDF7E0FC00282ED02DA16846FDF7DAFCDD
:1027C00000282FD02DA000BFFFF7A8F8002440213B
:1027D0006846FDF7C4FCAEE72DA0FFF79FF81BA0ED
:1027E000F2E733A0FFF79AF8384901200870FDF7A7
:1027F000B9FE374D4FF00134224629460220FDF73D
:1028000093FE224629460220FDF78EFEFDF782FE4A
:1028100013B0BDE8F0832FA0FFF780F8FFF74EFF5D
:1028200031A0D1E73CA0FFF779F8BFF34F8F3E48C6
:1028300001683E4A01F4E06111430160BFF34F8F2C
:1028400000BFFDE72009002061742B000D0A000085
:1028500061742B76657273696F6E000061742B75FD
:10286000706461746500000061742B72756E000005
:1028700061742B7265736574000000004154206E12
:102880006F7420737570706F72742E0D0A000000E3
:1028900052554920426F6F746C6F616465722056A7
:1028A000657273696F6E3A332E302E35000000006A
:1028B0005374617274206669726D776172652075F8
:1028C0007067726164652E2E2E0D0A0009000020CB
:1028D000040F08084A756D7020746F206170702EA7
:1028E0002E2E0D0A000000004A756D702066616989
:1028F0006C65642E204E6F206C6567616C20617082
:10290000706C69636174696F6E206465746563746B
:1029100065642E0D0A0000004465766963652072C7
:10292000657365742E0D0A000CED00E00400FA05D5
:1029300013B54FF6FF73012269460248FEF780FC8B
:1029400000981CBD2009002086B0FDF7A7FFFFF707
:1029500051F8FEF7E1FCFEF7EDFC14216846FDF7A7
:10296000FEFB12480068B0F15A3F10D110480068D1
:1029700010490840B0F1005F09D10C48001D006803
:10298000B0F1013F03D0FEF7F5FCFEF7B7FC0AA05B
:10299000FFF732FC0C4C207820B10128FBD1FEF768
:1029A000FDFEF8E7FFF7BAFEF5E70000000F0808A4
:1029B000003000080000FE2F3C424F4F54204D4F86
:1029C00044453E0D0A00000009000020303132333A
:1029D0003435363738394142434445460304060806
:1029E0000C1018203000000000000000000102035D
:1029F00004060708090000000001020304000000AB
:102A0000202A0008000000202000000038220008D2
:102A1000402A000820000020580D0000482200082D
:102A20000000000000000000000000001000000096
:102A3000010000000000000068FF1F00000000000F
:10300000008000203D6701088567010881310008C4
:1030100085670108856701088567010800000000D1
:1030200000000000000000000000000085670108AB
:1030300085670108000000008567010871690008C4
:1030400085670108856701088567010885670108AC
:1030500085670108856701085571000865710008DA
:103060007571000885710008957100088567010871
:10307000856701088567010885670108856701087C
:10308000856701088567010885670108856701086C
:10309000856701088567010885670108A571000833
:1030A0000000000085670108496F00088567010876
:1030B000856701088567010885670108856701083C
:1030C000856701088567010885670108856701082C
:1030D00085670108715C0008856701087D5C000850
:1030E000D17100087165000885670108C15E00089C
:1030F00085670108000000000000000000000000DB
:1031000000000000000000000000000000000000BF
:1031100000000000000000000000000000000000AF
:10312000000000000000000000000000000000009F
:0C31300000000000000000005FF808F143
:1031400010B5054C237833B9044B13B10448AFF3E1
:1031500000800123237010BD38060020000000000D
:10316000D076010808B5034B1BB103490348AFF300
:10317000008008BD000000003C060020D076010859
:103180007046694612F04CFFFFF7FEFF10F8012B66
:1031900011F8013B012A28BF9A42F7D0D01A704794
:1031A000034613F8012B002AFBD1181A0138704787
:1031B00081F0004102E000BF83F0004330B54FEAE8
:1031C00041044FEA430594EA050F08BF90EA020F55
:1031D0001FBF54EA000C55EA020C7FEA645C7FEAE8
:1031E000655C00F0E2804FEA5454D4EB5555B8BF0B
:1031F0006D420CDD2C4480EA020281EA030382EA7C
:10320000000083EA010180EA020281EA0303362D0D
:1032100088BF30BD11F0004F4FEA01314FF4801CE0
:103220004CEA113102D0404261EB410113F0004FF2
:103230004FEA03334CEA133302D0524263EB4303A9
:1032400094EA050F00F0A780A4F10104D5F1200E47
:103250000DDB02FA0EFC22FA05F2801841F10001A2
:1032600003FA0EF2801843FA05F359410EE0A5F176
:1032700020050EF1200E012A03FA0EFC28BF4CF0A7
:10328000020C43FA05F3C01851EBE37101F000455D
:1032900007D54FF0000EDCF1000C7EEB00006EEB6A
:1032A0000101B1F5801F1BD3B1F5001F0CD34908F4
:1032B0005FEA30004FEA3C0C04F101044FEA44524B
:1032C00012F5800F80F09A80BCF1004F08BF5FEAD2
:1032D000500C50F1000041EB045141EA050130BDB2
:1032E0005FEA4C0C404141EB010111F4801FA4F155
:1032F0000104E9D191F0000F04BF01460020B1FAAA
:1033000081F308BF2033A3F10B03B3F120020CDAE1
:103310000C3208DD02F1140CC2F10C0201FA0CF0BF
:1033200021FA02F10CE002F11402D8BFC2F1200C24
:1033300001FA02F120FA0CFCDCBF41EA0C019040DA
:10334000E41AA2BF01EB0451294330BD6FEA040423
:103350001F3C1CDA0C340EDC04F11404C4F120020E
:1033600020FA04F001FA02F340EA030021FA04F320
:1033700045EA030130BDC4F10C04C4F1200220FA77
:1033800002F001FA04F340EA0300294630BD21FAB5
:1033900004F0294630BD94F0000F83F4801306BF7B
:1033A00081F480110134013D4EE77FEA645C18BF6F
:1033B0007FEA655C29D094EA050F08BF90EA020F06
:1033C00005D054EA000C04BF1946104630BD91EAFE
:1033D000030F1EBF0021002030BD5FEA545C05D101
:1033E0004000494128BF41F0004130BD14F5800440
:1033F0003CBF01F5801130BD01F0004545F0FE41B4
:1034000041F470014FF0000030BD7FEA645C1ABFE8
:10341000194610467FEA655C1CBF0B46024650EA1F
:10342000013406BF52EA033591EA030F41F400214B
:1034300030BD00BF90F0000F04BF0021704730B5D1
:103440004FF4806404F132044FF000054FF00001A6
:1034500050E700BF90F0000F04BF0021704730B567
:103460004FF4806404F1320410F0004548BF40423C
:103470004FF000013EE700BF42004FEAE2014FEA91
:1034800031014FEA02701FBF12F07F4393F07F4F6C
:1034900081F06051704732F07F4208BF704793F06F
:1034A0007F4F04BF41F40021704730B54FF4607482
:1034B00001F0004521F000411CE700BF50EA010285
:1034C00008BF704730B54FF000050AE050EA01022E
:1034D00008BF704730B511F0004502D5404261EB9E
:1034E00041014FF4806404F132045FEA915C3FF4DF
:1034F000D8AE4FF003025FEADC0C18BF03325FEA7C
:10350000DC0C18BF033202EBDC02C2F1200300FA2C
:1035100003FC20FA02F001FA03FE40EA0E0021FA51
:1035200002F11444BDE600BF70B54FF0FF0C4CF43F
:10353000E06C1CEA11541DBF1CEA135594EA0C0FF1
:1035400095EA0C0F00F0DEF82C4481EA030621EA2C
:103550004C5123EA4C5350EA013518BF52EA033567
:1035600041F4801143F4801338D0A0FB02CE4FF019
:103570000005E1FB02E506F00042E0FB03E54FF049
:103580000006E1FB03569CF0000F18BF4EF0010E41
:10359000A4F1FF04B6F5007F64F5407404D25FEA3D
:1035A0004E0E6D4146EB060642EAC62141EA5551F0
:1035B0004FEAC52040EA5E504FEACE2EB4F1FD0C32
:1035C00088BFBCF5E06F1ED8BEF1004F08BF5FEAB0
:1035D000500E50F1000041EB045170BD06F0004662
:1035E00046EA010140EA020081EA0301B4EB5C040F
:1035F000C2BFD4EB0C0541EA045170BD41F4801107
:103600004FF0000E013C00F3AB8014F1360FDEBF2B
:10361000002001F0004170BDC4F10004203C35DA07
:103620000C341BDC04F11404C4F1200500FA05F38A
:1036300020FA04F001FA05F240EA020001F000422B
:1036400021F0004110EBD37021FA04F642EB0601A1
:103650005EEA430E08BF20EAD37070BDC4F10C04CB
:10366000C4F1200500FA04F320FA05F001FA04F28F
:1036700040EA020001F0004110EBD37041F100017B
:103680005EEA430E08BF20EAD37070BDC4F1200586
:1036900000FA05F24EEA020E20FA04F301FA05F2EE
:1036A00043EA020321FA04F001F0004121FA04F296
:1036B00020EA020000EBD3705EEA430E08BF20EA66
:1036C000D37070BD94F0000F0FD101F000464000A0
:1036D00041EB010111F4801F08BF013CF7D041EA22
:1036E000060195F0000F18BF704703F00046520026
:1036F00043EB030313F4801F08BF013DF7D043EAF7
:103700000603704794EA0C0F0CEA135518BF95EAAC
:103710000C0F0CD050EA410618BF52EA4306D1D133
:1037200081EA030101F000414FF0000070BD50EA52
:10373000410606BF1046194652EA430619D094EADC
:103740000C0F02D150EA013613D195EA0C0F05D1C6
:1037500052EA03361CBF104619460AD181EA03011A
:1037600001F0004141F0FE4141F470014FF00000D2
:1037700070BD41F0FE4141F4780170BD70B54FF06D
:10378000FF0C4CF4E06C1CEA11541DBF1CEA1355ED
:1037900094EA0C0F95EA0C0F00F0A7F8A4EB0504CF
:1037A00081EA030E52EA03354FEA013100F08880C6
:1037B0004FEA03334FF0805545EA131343EA12638F
:1037C0004FEA022245EA111545EA10654FEA002644
:1037D0000EF000419D4208BF964244F1FD0404F5FD
:1037E000407402D25B084FEA3202B61A65EB030559
:1037F0005B084FEA32024FF480104FF4002CB6EB16
:10380000020E75EB030E22BFB61A754640EA0C0095
:103810005B084FEA3202B6EB020E75EB030E22BFD5
:10382000B61A754640EA5C005B084FEA3202B6EB16
:10383000020E75EB030E22BFB61A754640EA9C00D5
:103840005B084FEA3202B6EB020E75EB030E22BFA5
:10385000B61A754640EADC0055EA060E18D04FEA63
:10386000051545EA16754FEA06164FEAC30343EA03
:1038700052734FEAC2025FEA1C1CC0D111F4801FD0
:103880000BD141EA00014FF000004FF0004CB6E7C9
:1038900011F4801F04BF01430020B4F1FD0C88BF68
:1038A000BCF5E06F3FF6AFAEB5EB030C04BFB6EB73
:1038B000020C5FEA500C50F1000041EB045170BD66
:1038C0000EF0004E4EEA113114EB5C04C2BFD4EB93
:1038D0000C0541EA045170BD41F480114FF0000E17
:1038E000013C90E645EA060E8DE60CEA135594EA93
:1038F0000C0F08BF95EA0C0F3FF43BAF94EA0C0F96
:103900000AD150EA01347FF434AF95EA0C0F7FF40A
:1039100025AF104619462CE795EA0C0F06D152EA5E
:1039200003353FF4FDAE1046194622E750EA410642
:1039300018BF52EA43067FF4C5AE50EA41047FF453
:103940000DAF52EA43057FF4EBAE12E74FF0FF3CB8
:1039500006E000BF4FF0010C02E000BF4FF0010C89
:103960004DF804CD4FEA410C7FEA6C5C4FEA430C02
:1039700018BF7FEA6C5C1BD001B050EA410C0CBF51
:1039800052EA430C91EA030F02BF90EA020F0020B3
:10399000704710F1000F91EA030F58BF994208BF1A
:1039A00090422CBFD8176FEAE37040F001007047D7
:1039B0004FEA410C7FEA6C5C02D150EA013C07D12E
:1039C0004FEA430C7FEA6C5CD6D152EA033CD3D079
:1039D0005DF8040B704700BF8446104662468C4673
:1039E0001946634600E000BF01B5FFF7B7FF0028A6
:1039F00048BF10F1000F01BD4DF808EDFFF7F4FFCF
:103A00000CBF012000205DF808FB00BF4DF808ED59
:103A1000FFF7EAFF34BF012000205DF808FB00BF7C
:103A20004DF808EDFFF7E0FF94BF012000205DF89E
:103A300008FB00BF4DF808EDFFF7CEFF94BF012053
:103A400000205DF808FB00BF4DF808EDFFF7C4FF4C
:103A500034BF012000205DF808FB00BF4FEA41029F
:103A600012F5001215D211D56FF47873B3EB6252D0
:103A700012D94FEAC12343F0004343EA505311F0F7
:103A8000004F23FA02F018BF404270474FF0000089
:103A9000704750EA013005D111F0004008BF6FF0C7
:103AA000004070474FF00000704700BF4A0011D23D
:103AB00012F5001211D20DD56FF47873B3EB625288
:103AC0000ED44FEAC12343F0004343EA505323FA94
:103AD00002F070474FF00000704750EA013002D109
:103AE0004FF0FF3070474FF00000704780F000400B
:103AF00002E000BF81F0004142001FBF5FEA4103C6
:103B000092EA030F7FEA226C7FEA236C6AD04FEAC5
:103B10001262D2EB1363C1BFD2184140484041400A
:103B2000B8BF5B42192B88BF704710F0004F40F4BC
:103B3000000020F07F4018BF404211F0004F41F4D8
:103B4000000121F07F4118BF494292EA030F3FD0A4
:103B5000A2F1010241FA03FC10EB0C00C3F12003B7
:103B600001FA03F100F0004302D5494260EB400046
:103B7000B0F5000F13D3B0F1807F06D340084FEAB1
:103B8000310102F10102FE2A51D2B1F1004F40EBA6
:103B9000C25008BF20F0010040EA0300704749000E
:103BA00040EB000010F4000FA2F10102EDD1B0FAD9
:103BB00080FCACF1080CB2EB0C0200FA0CF0AABFCE
:103BC00000EBC25052421843BCBFD040184370476C
:103BD00092F0000F81F4000106BF80F40000013272
:103BE000013BB5E74FEA41037FEA226C18BF7FEA49
:103BF000236C21D092EA030F04D092F0000F08BF8B
:103C00000846704790EA010F1CBF0020704712F071
:103C10007F4F04D1400028BF40F00040704712F1B0
:103C200000723CBF00F50000704700F0004343F015
:103C3000FE4040F4000070477FEA226216BF08464B
:103C40007FEA23630146420206BF5FEA412390EA0E
:103C5000010F40F4800070474FF0000304E000BF04
:103C600010F0004348BF40425FEA000C08BF7047B5
:103C700043F0964301464FF000001CE050EA010279
:103C800008BF70474FF000030AE000BF50EA01028E
:103C900008BF704711F0004302D5404261EB41017B
:103CA0005FEA010C02BF84460146002043F0B643A0
:103CB00008BFA3F18053A3F50003BCFA8CF2083AC5
:103CC000A3EBC25310DB01FA02FC634400FA02FCCE
:103CD000C2F12002BCF1004F20FA02F243EB0200D5
:103CE00008BF20F00100704702F1200201FA02FC37
:103CF000C2F1200250EA4C0021FA02F243EB02002A
:103D000008BF20EADC7070474FF0FF0C1CEAD0526D
:103D10001EBF1CEAD15392EA0C0F93EA0C0F6FD02E
:103D20001A4480EA010C400218BF5FEA41211ED00C
:103D30004FF0006343EA501043EA5111A0FB0131F8
:103D40000CF00040B1F5000F3EBF490041EAD371CD
:103D50005B0040EA010062F17F02FD2A1DD8B3F149
:103D6000004F40EBC25008BF20F00100704790F0B8
:103D7000000F0CF0004C08BF49024CEA502040EA0A
:103D800051207F3AC2BFD2F1FF0340EAC2507047D0
:103D900040F400004FF00003013A5DDC12F1190F0E
:103DA000DCBF00F000407047C2F10002410021FA80
:103DB00002F1C2F1200200FA02FC5FEA310040F198
:103DC000000053EA4C0308BF20EADC70704792F011
:103DD000000F00F0004C02BF400010F4000F013A49
:103DE000F9D040EA0C0093F0000F01F0004C02BF44
:103DF000490011F4000F013BF9D041EA0C018FE7B3
:103E00000CEAD15392EA0C0F18BF93EA0C0F0AD0B8
:103E100030F0004C18BF31F0004CD8D180EA0100DE
:103E200000F00040704790F0000F17BF90F0004F77
:103E3000084691F0000F91F0004F14D092EA0C0F59
:103E400001D142020FD193EA0C0F03D14B0218BFEC
:103E5000084608D180EA010000F0004040F0FE4032
:103E600040F40000704740F0FE4040F440007047CE
:103E70004FF0FF0C1CEAD0521EBF1CEAD15392EA4D
:103E80000C0F93EA0C0F69D0A2EB030280EA010C3D
:103E900049024FEA402037D04FF0805343EA1111D6
:103EA00043EA10130CF000408B4238BF5B0042F134
:103EB0007D024FF4000C8B4224BF5B1A40EA0C00D9
:103EC000B3EB510F24BFA3EB510340EA5C00B3EB0B
:103ED000910F24BFA3EB910340EA9C00B3EBD10FF9
:103EE00024BFA3EBD10340EADC001B0118BF5FEA4B
:103EF0001C1CE0D1FD2A3FF650AF8B4240EBC25074
:103F000008BF20F0010070470CF0004C4CEA502034
:103F10007F32C2BFD2F1FF0340EAC250704740F483
:103F200000004FF00003013A37E792F0000F00F075
:103F3000004C02BF400010F4000F013AF9D040EAF3
:103F40000C0093F0000F01F0004C02BF490011F487
:103F5000000F013BF9D041EA0C0195E70CEAD1537F
:103F600092EA0C0F08D142027FF47DAF93EA0C0F66
:103F70007FF470AF084676E793EA0C0F04D14B024A
:103F80003FF44CAF08466EE730F0004C18BF31F0FC
:103F9000004CCAD130F000427FF45CAF31F00043F6
:103FA0007FF43CAF5FE700BF4FF0FF3C06E000BF8F
:103FB0004FF0010C02E000BF4FF0010C4DF804CDB2
:103FC0004FEA40024FEA41037FEA226C18BF7FEAC2
:103FD000236C11D001B052EA530C18BF90EA010FC4
:103FE00058BFB2EB030088BFC81738BF6FEAE17053
:103FF00018BF40F0010070477FEA226C02D15FEAEF
:10400000402C05D17FEA236CE4D15FEA412CE1D05A
:104010005DF8040B704700BF844608466146FFE721
:104020000FB5FFF7C9FF002848BF10F1000F0FBD03
:104030004DF808EDFFF7F4FF0CBF012000205DF8FC
:1040400008FB00BF4DF808EDFFF7EAFF34BF012081
:1040500000205DF808FB00BF4DF808EDFFF7E0FF1A
:1040600094BF012000205DF808FB00BF4DF808ED6B
:10407000FFF7D2FF94BF012000205DF808FB00BFCE
:104080004DF808EDFFF7C8FF34BF012000205DF8B0
:1040900008FB00BF42000ED2B2F1FE4F0BD34FF02F
:1040A0009E03B3EB126209D44FEA002343F00043AE
:1040B00023FA02F070474FF00000704712F1610FD1
:1040C00001D1420202D14FF0FF3070474FF00000A3
:1040D000704700BF70470000014801F0EBBD00BF12
:1040E00030790108F0B50546002490F90C30B0F99C
:1040F0000A200178007A85B000901248ADF80C4093
:104100008DF80E4001F0D6FD6B6823B90E4801F022
:10411000D1FD05B0F0BD2B7A002BF7D00B4801F094
:10412000C9FD0B4E0B4F2B7AA342EFDD6B68314676
:104130001A5D03A812F0A8FB03A9384601F0BAFDE6
:104140000134F0E75B7801085882010854780108CF
:104150006F7801088C970108F7B50024037990F96E
:104160000820B0F9061005460E48ADF804408DF859
:10417000064001F09FFD0C4E0C4F2B79A34204DC4E
:104180000B4801F097FD03B0F0BD2B6831461A5D76
:1041900001A812F079FB01A9384601F08BFD01342A
:1041A000EBE700BF44780108567801088C970108B6
:1041B0005882010810B1034801F07CBD6321024818
:1041C00001F078BD747801088678010821B90328C8
:1041D00007D8044801F06EBD672902D0024801F0FB
:1041E00069BD7047307901088678010870477047CB
:1041F00000B5A1B011F07EF9214810F08FFC2148E4
:1042000010F030FB204810F08FFC204810F092FC9A
:104210001F4810F02DFB1F491F4810F06FF801A92F
:10422000002010F0D7FE9DF8483073B91B4801F00C
:1042300041FD9DF84A3093B9194801F03BFD9DF8C6
:10424000533083B1174801F035FD174801F032FDB6
:1042500011F052F9FCE71548F5E71548F3E7012B93
:10426000F3D11448E9E7144801F024FD9DF84930E2
:10427000012BF2D0EFD3022BE7D11048E3E700BFC8
:10428000E540000859410008B5410008CD4100084B
:10429000D9400008D5400008ED4100089278010897
:1042A000AA780108BB78010821790108ED78010896
:1042B000F978010811790108D47801080579010815
:1042C00010B5464801F0F6FC454801F0F3FC4548BE
:1042D00001F0F0FC444801F0EDFC444801F0EAFC38
:1042E000434801F0E7FC434801F0E4FC424801F098
:1042F000E1FC424801F0DEFC414801F0DBFC4148B2
:1043000001F0D8FC404C414801F0D4FC404801F099
:10431000D1FC204601F0CEFC3E4801F0CBFC3E48EB
:1043200001F0C8FC3D4801F0C5FC3D4801F0C2FC6D
:104330003C4801F0BFFC3C4801F0BCFC3B4801F0AC
:10434000B9FC3B4801F0B6FC3A4801F0B3FC3A48EE
:1043500001F0B0FC394801F0ADFC394801F0AAFC8D
:10436000384801F0A7FC384801F0A4FC374801F0B8
:10437000A1FC374801F09EFC364801F09BFC364812
:1043800001F098FC354801F095FC354801F092FCAD
:10439000344801F08FFC344801F08CFC334801F0C4
:1043A00089FC334801F086FC324801F083FC324836
:1043B00001F080FC314801F07DFC204601F07AFCE0
:1043C0002F4801F077FC2F4801F074FC2E4801F0D3
:1043D00071FCBDE810402D4801F06CBC3A79010831
:1043E0003E79010854790108637901086F79010861
:1043F00090790108B1790108D1790108F3790108B0
:104400001A7A0108317A010858820108537A0108A2
:10441000737A0108927A0108A97A0108D37A01080F
:10442000DF7A0108F67A0108187B0108377B01085A
:104430005B7B01087F7B0108A37B0108C87B010827
:10444000ED7B0108127C01083B7C01086A7C0108B5
:10445000997C0108C87C0108EB7C01080E7D0108ED
:10446000317D0108507D0108717D01088D7D0108B5
:10447000AF7D0108CC7D0108EA7D0108147E0108AA
:104480003D7E0108557E01087D7E0108A77E01085A
:104490002DE9F04100250746A0B04E680C4628469D
:1044A00001A9ADF800508DF8025010F093FD022FD5
:1044B00029D1294616F8012B0AB10D2A25D16668A3
:1044C00068493046FEF762FE002836D1022D1AD127
:1044D0000121A06800F08EFB012826D0E168624827
:1044E00012F00EFAE068FEF75BFE0646A06812F0D6
:1044F0004AF9B2B25C49C0B20FF026FE012802D0E0
:1045000010D3072814D0022113E03A2AD2D1013562
:10451000012D06F8011C01D1A660CBE7022D08BFD2
:10452000E660C7E7514801F0C5FB20B0BDE8F08167
:1045300005214F4801F0BEFBF7E79DF84830012BFD
:104540003BD14C4B93F8A730022B01D05021F0E720
:1045500030464949FEF71AFE06460028D3D1012D00
:10456000D1D1A168404812F0CBF9A068FEF718FE3F
:10457000C3070446C7D435463B4FA5420ADB3A4D34
:104580006410A6420DD1B1B2374810F041F90028AD
:10459000CBD0DBE7785D12F028F90028B3D00135E5
:1045A000EBE735F81630102200216846ADF80030F0
:1045B00012F0E0FAA8550136E3E7002B50D130465F
:1045C0002E49FEF7E3FD064600289CD1022D9AD124
:1045D000A06812F0D8F80928074626D80121A0685B
:1045E00000F008FB0128A0D07B1EDE2B8BD8E168F1
:1045F0001D4812F085F9E068FEF7D2FD10F00105C4
:10460000044680D1DFF86080A54214DB164D6410AB
:10461000A64219D11449F2B2F8B210F071FC012887
:1046200001463FF470AF84D27FE7632FA06894BF48
:1046300029460321D4E718F8050012F0D6F800281F
:104640003FF461AF0135DFE735F816301022002165
:104650006846ADF8003012F08DFAA8550136D7E75C
:10466000012166E76B7F01086403002030790108AF
:1046700086780108B4020020707F0108787F010865
:1046800010B5154BA0B093F88D000C4620B1512108
:10469000124801F00FFB0CE001A910F09BFC6368CD
:1046A000BBB99DF84A4034B910F04AFA01460028D7
:1046B000EED120B010BD012C0BD110F041FA014613
:1046C00018B10128E4D10221E2E72046FFF772FD8C
:1046D000EFE70121DCE700BFB40200208678010883
:1046E0007FB501A80FF096FE01A9034801F0E2FA98
:1046F00007B05DF804FB00BF7D7F0108022838B5D4
:104700000C462BD1002318464A6812F8011B09B148
:104710000D2926D1656823492846FEF737FD68BB79
:10472000A06812F030F81E2818DCA06812F02BF8F0
:10473000002813DDA06812F026F801461A4801F09F
:10474000B9FAA06812F01FF84FF47A73584311F0C9
:10475000D1FFBDE8384001200FF01CBE02211348F4
:104760001AE03A29D1D10133012B02F8010C01D111
:10477000A260CAE7022B08BFE260C6E70C492846E0
:10478000FEF704FD60B901F09DFFA0F2B633642B83
:1047900001468CBF07480848BDE8384001F08ABA96
:1047A0000121DCE7BF7E0108CB7E01088678010885
:1047B0001E7F01082C7F0108447F0108012803DCCB
:1047C0000221034801F076BA486800F06FB900BFD3
:1047D00086780108022803D00221034801F06ABA52
:1047E000486800F0B1B900BF867801082DE9F043B0
:1047F000044695B05022002168462D4D12F03CF839
:1048000003222C4920462C6012F082F840B101218D
:10481000294801F04FFA0126304615B0BDE8F08373
:10482000E378002BF3D0E31C04462B601A7812B90E
:10483000002CECD010E00134152CE8D019460DEB1B
:10484000840242F8043C0B4611F8012B2C2A1CD0A0
:10485000002AEBD00D2A12D10025DDF80080174F79
:1048600057F835104046FEF791FC4FEAC509064659
:10487000A0B94F447B68694620469847CCE73A2A5E
:10488000EAD03D2ADFD1012CDDD11A4602F8010B16
:104890001346197801323A29FAD0C7E70135072DB6
:1048A000DED10121044801F005FA0026B4E700BF7B
:1048B000EC200020367901088678010800000020ED
:1048C00010B523490446FEF761FC78B32149204620
:1048D000FEF75CFC58B320492046FEF757FC40B376
:1048E0001E492046FEF752FC28B31D492046FEF71C
:1048F0004DFC10B31B492046FEF748FCF8B11A499D
:104900002046FEF743FCE0B118492046FEF73EFC86
:10491000C8B117492046FEF739FCB0B11549204609
:10492000FEF734FC00280CBF0920642010BD0120D4
:10493000FCE70220FAE70320F8E70420F6E7052069
:10494000F4E70620F2E70720F0E70820EEE700BFD3
:10495000867F01088C7F0108927F0108987F0108FB
:104960009E7F0108A47F0108AA7F0108B07F01088B
:10497000B67F0108BC7F010870B500252E460439BA
:1049800003780BB9284670BD01350B2D19D00346AD
:1049900041F8040F1C4613F8010B2C2808D090B1E5
:1049A000262803D1002121701360EBE73A28F1D1CA
:1049B000234603F8016B1846047801332C2CFAD0F7
:1049C000DEE70025DEE71060DCE700002DE9F341BB
:1049D0009846002302280D461646ADF804308DF89F
:1049E000063007D00221144801F064F9012002B01A
:1049F000BDE8F0810846FEF7D3FB7700B842F1D15D
:104A00002C4614F8010B11F0F0FE0028EAD0631BCD
:104A10009F42F6DC002435F814301022002101A852
:104A2000ADF8043012F0A6F808F804000134A642EC
:104A3000F1DC0020DBE700BF867801082DE9F041BA
:104A40000025D2F80080154E56F835104046FEF786
:104A50009DFBEF00044680B101352A2DF4D10121E0
:104A600017E010F003F90E4B18702046BDE8F081F6
:104A70000021012010F0AEFAF5E73E443379032B14
:104A8000F6D00A2BEBD1074B93F88D40002CE8D0E1
:104A90005121054801F00EF90120E7E73800002018
:104AA000D0060020B4020020867801082DE9F047E6
:104AB0000446214DDFF88880DFF888908CB001AA89
:104AC00002A92046FFF758FF02288246029E14DC06
:104AD00029683046FEF75AFB78B129693046FEF75F
:104AE00055FB50B141460398FEF750FB28B1022117
:104AF000124801F0DFF8012011E0002455F83410CD
:104B00003046FEF743FBE700034658B92F447E6862
:104B100003AA0AF1FF314846019CB04738B10CB0F6
:104B2000BDE8F0870134032CE8D10121E0E7019BC7
:104B3000002BC4D1F3E700BF88010020867801086C
:104B40009A810108540600202DE9F0410446DFF85F
:104B500088801D4D8CB002A901AA2046FFF70CFFEA
:104B6000039F064641463846FEF710FB20B1174921
:104B70003846FEF70BFB48B9032E09D00221144832
:104B800001F098F801200CB0BDE8F081022EF4E7A6
:104B900029682046FEF7FAFA38B1A9682046FEF7E0
:104BA000F5FA08B10121EAE7012005EBC0004768EA
:104BB000002303AA711E0748B8470028E3D1019BD0
:104BC000002BC8D1DFE700BFA001002057800108FB
:104BD000867801085406002052800108014488426A
:104BE00001D10020704710F8013B303B092BF6D96A
:104BF0000120704738B504464518A542207801D1F8
:104C000050B104E011F0E8FD01340028F5D1022193
:104C1000024801F04FF8012038BD00BF8678010836
:104C20007D4B2DE9F34793F88D700D46012F144607
:104C300004D05121794801F03DF810E01668784918
:104C40003046FEF7A3FAD0B9013D012D01D902216A
:104C5000F0E739466068FFF7CDFF012801D1012058
:104C6000CBE0606811F08FFD0FF008FE6D4BC0B215
:104C70001870002800F0BD805128DAD0E7E7062D33
:104C8000E5DC251F04F1140855F8047F3846FEF7CB
:104C900087FA01463846FFF7A1FF0128D7D0A8457B
:104CA000F2D1304611F06FFD202350FA03F3CED13C
:104CB000206811F068FD5C4B5C4A03449342054652
:104CC000C5D85B4B20689D4200F29A800921FFF70E
:104CD00091FF0128C3D0606811F055FD0C28B6DCA7
:104CE000606811F050FD0628B1DD606811F04BFDE1
:104CF000C6B2092E00F2868001216068FFF77AFFB4
:104D00000128ACD0A06811F03EFD02289FDCA0680D
:104D100011F039FD00289ADBA06811F034FD012163
:104D20000746A068FFF766FF012898D0E06811F0F9
:104D30002AFD04288BDCE06811F025FD002886DDC3
:104D4000E06811F020FD01218046E068FFF752FF86
:104D5000012884D0206911F016FDB0F5803FBFF620
:104D600076AF206911F00FFD04287FF770AF20693E
:104D700011F009FD01211FFA80F90B460A2248466D
:104D80005343834240D92069FFF734FF01283FF4A1
:104D900066AF606911F0F7FC14283FF758AF6069FF
:104DA00011F0F1FC04287FF752AF606911F0EBFCC1
:104DB0005FFA80FABAF1090F2BD801216069FFF779
:104DC00019FF01283FF44BAF5FFA88F33146CDE974
:104DD000009AFAB228460FF0C1FC124B5028014647
:104DE00018703FF427AF51283FF423AF00287FF419
:104DF0002EAF104800F05EFF002002B0BDE8F08743
:104E00000A2164E7022178E70131C9B20629B7D146
:104E1000BFE70221D2E700BFB40200208678010874
:104E200044800108D0060020FF9A32E2FF91FE1E66
:104E3000FFC99A3B307901082DE9F0430D4614462D
:104E40000026D2F80090B94F89B057F8361048467E
:104E50004FEAC608FEF79AF9002800F0EF82013603
:104E60002A2EF2D1012104E0B14B93F88D0020B13C
:104E70005121B04800F01EFF29E0AF4910F0AAF818
:104E80006668AE493046FEF781F930B9AC4800F0AB
:104E900011FF002009B0BDE8F0833046FFF710FD98
:104EA000642801D15921E4E76068FFF709FDC0B229
:104EB0000FF0B6FAA34B18700028E7D00221D8E70C
:104EC0006B4608226168E8B2FFF780FD08B1012057
:104ED000E0E768460FF0BAFAECE76B460822616833
:104EE000E8B2FFF773FD0028F1D168460FF0C4FA6D
:104EF000E0E76B4610226168E8B2FFF767FD002823
:104F0000E5D168460FF0CEFAD4E76B46042261681B
:104F1000E8B2FFF75BFD0028D9D168460FF0E0FA50
:104F2000C8E76B4610226168E8B2FFF74FFD002822
:104F3000CDD168460FF0EEFABCE76B4610226168EF
:104F4000E8B2FFF743FD0028C1D168460FF000FB2F
:104F5000B0E76B4604226168E8B2FFF737FD00282E
:104F6000B5D168460FF048FBC0B2A3E76B461022EC
:104F70006168E8B2FFF72AFD0028A8D168460FF063
:104F800071FBF1E76B4610226168E8B2FFF71EFD86
:104F900000289CD168460FF0A3FBE5E7644B93F82B
:104FA0008D30002B7FF464AF01216068FFF722FE93
:104FB00001288CD065682846FEF7F2F8014628469D
:104FC000FFF70CFE01283FF479AF284611F0DBFB18
:104FD00001283FF773AF606811F0D5FB0FF0D6FAE8
:104FE000584BC1B2197000293FF450AF41E7504B04
:104FF00093F88D30002B7FF43BAF01216068FFF701
:10500000F9FD01283FF463AF65682846FEF7C8F84C
:1050100001462846FFF7E2FD01283FF44FAF28463E
:1050200011F0B1FBC0B20FF049FC464B01461870BD
:1050300000287FF41EAF606811F0A5FB01287FF601
:1050400025AF26E765682846FEF7AAF801462846F8
:10505000FFF7C4FD01283FF431AF01212846FFF7D7
:10506000C9FD01283FF433AF606811F08CFB0128C3
:105070003FF724AF606811F086FBC0B20FF044FC2C
:10508000304B187020B101283FF418AF0146F0E60C
:10509000606811F078FB01283FF610AF0FF076F949
:1050A000F7E6234B93F88D30002B7FF4E1AE656873
:1050B0002846FEF775F801462846FFF78FFD0128C0
:1050C0003FF4FCAEA6683046FEF76AF8014630466B
:1050D000FFF784FD01283FF4F1AE284611F053FBA1
:1050E000C5B2A06811F04FFB092D064617D8012163
:1050F0006068FFF77FFD01283FF4E9AE0121A06859
:10510000FFF778FD01283FF4E2AEF1B228460FF038
:105110000FFC0C4B01461870002837D1B6E6632D02
:10512000606894BF02210321E3E700BF380000203C
:10513000B40200208678010854060020C80600202A
:1051400030790108D0060020BA4B93F88D30002B3F
:105150007FF48EAE65682846FEF722F801462846A1
:10516000FFF73CFD01283FF4A9AE01212846FFF7D7
:1051700041FD01283FF4ABAE606811F004FBC0B202
:105180000FF036FCAC4B0146187018B101293FF402
:1051900095AE6EE6606811F0F6FA02284FE7656892
:1051A0002846FDF7FDFF01462846FFF717FD0128B9
:1051B0003FF484AE01212846FFF71CFD01283FF48F
:1051C00086AE606811F0DFFA01283FF777AE6068BD
:1051D00011F0D9FAC0B20FF037FC974D28700028B3
:1051E0007FF46CAE606811F0CEFA01287FF64EAE07
:1051F00029783EE665682846FDF7D2FF0146284635
:10520000FFF7ECFC01283FF459AE284611F0BBFA39
:10521000C5B2092D0AD801216068FFF7EBFC01280F
:105220003FF455AE28460FF041FE72E70221F3E746
:1052300065682846FDF7B4FF01462846FFF7CEFC17
:1052400001283FF43BAE01212846FFF7D3FC01289B
:105250003FF43DAE606811F096FA01283FF72EAE9C
:10526000606811F090FA003018BF01200FF00AFCBE
:10527000714B01461870002888D1DCE66568284625
:10528000FDF78EFF01462846FFF7A8FC01283FF4F2
:1052900015AE284611F077FAC5B2092D0AD80121BA
:1052A0006068FFF7A7FC01283FF411AE28460FF015
:1052B0000DFC2EE70221F3E76B4608226168E8B295
:1052C000FFF784FB00287FF402AE684610F03CF93B
:1052D0004AE66B4608226168E8B2FFF777FB0028D0
:1052E0007FF4F5AD684610F059F93DE66B461022A3
:1052F0006168E8B2FFF76AFB00287FF4E8AD684612
:1053000010F078F930E66B4604226168E8B2FFF7E6
:105310005DFB00287FF4DBAD684610F09FF923E6C3
:105320006B4610226168E8B2FFF750FB00287FF45B
:10533000CEAD684610F0BCF916E66B4610226168E7
:10534000E8B2FFF743FB00287FF4C1AD684610F0D8
:10535000E3F909E66B4604226168E8B2FFF736FB21
:1053600000287FF4B4AD684610F00AFAFCE56B46FD
:1053700010226168E8B2FFF729FB00287FF4A7AD8F
:10538000684610F027FAEFE56B4610226168E8B234
:10539000FFF71CFB00287FF49AAD684610F04EFA28
:1053A000E2E5012D3FF78AAD10F07CFADCE5214BF8
:1053B00093F88D30002B7FF45BAD65682846FDF7D0
:1053C000EFFE01462846FFF709FC01283FF476ADC1
:1053D00001212846FFF70EFC01283FF478AD6068F4
:1053E00011F0D1F901283FF769AD606811F0CBF9F0
:1053F00010F09AFAB8E565682846FDF7D1FE014637
:105400002846FFF7EBFB01283FF458AD0121284661
:10541000FFF7F0FB01283FF45AAD606811F0B3F9D3
:1054200008283FF74BAD606811F0ADF910F09AFA1B
:105430009AE500BFB4020020D006002047443B7923
:10544000093B212B3FF60EAD01A252F823F000BF1D
:10545000694E0008654E0008C14E0008DB4E00088A
:10546000F34E00080B4F0008234F00083B4F000885
:10547000EF4F000845500008A350000849510008AC
:105480009F510008F55100087D5200083152000874
:10549000654E00089D4F0008534F00086D4F0008EF
:1054A000854F0008B9520008D3520008ED52000899
:1054B00007530008215300083B53000855530008C8
:1054C0006F53000889530008A3530008AF53000826
:1054D000654E0008F75300082DE9F0430D461446C9
:1054E0000026D2F80090C04F85B057F836104846D5
:1054F0004FEAC608FDF74AFE002800F08181013618
:105500002A2EF2D1012124E00A200EF07FFD0EF0B8
:105510003DFF002005B0BDE8F083022D01D002213F
:1055200017E001216068FFF765FB012801D1012028
:10553000F0E760680378303B012BF0D811F023F9D5
:105540000EF028FFA94B014618700028E1D0502822
:10555000E5D1A74800F0AEFBE9E7012DDFDCA54867
:1055600000F0A8FB0EF050FFD3E7A6683046FDF729
:1055700017FE01463046FFF731FB0128CFD001214D
:105580006068FFF737FB0128D1D0032DC7D1A06891
:1055900011F0F9F8B0F5165F4FD020DCB0F5166FBA
:1055A0003AD0B0F5965F3FD0B0F5966FB7D10421F1
:1055B000A068FFF71FFB0128B9D00025606811F033
:1055C000E2F82946C0B20EF027FD884B012818707A
:1055D000A5D0C0F0FB8002289BD10321B9E7B0F52C
:1055E000164F31D00ADCB0F5964F98D10521A0684E
:1055F000FFF700FB01289AD00425DFE7B0F5614FE3
:105600002BD0B0F5E13F8AD10621A068FFF7F2FA6E
:1056100001288CD00725D1E70421A068FFF7EAFA1A
:10562000012884D00125C9E70421A068FFF7E2FA28
:1056300001283FF47CAF0225C0E70421A068FFF7F2
:10564000D9FA0128BAD172E70521A068FFF7D2FA8A
:1056500001283FF46CAF0525B0E70521A068FFF7EE
:10566000C9FA01283FF463AF0625A7E7624B93F818
:105670008D700FB151216CE701216068FFF7BAFA14
:1056800001283FF454AF0121A068FFF7B3FA0128C5
:105690003FF44DAF66683046FDF782FD0146304667
:1056A000FFF79CFA01283FF43AAFA6683046FDF7B1
:1056B00077FD01463046FFF791FA01283FF42FAFFE
:1056C000032D7FF42CAF304611F05DF801287FF4F4
:1056D00026AF4A4E384631460FF07CFC606811F028
:1056E00052F802280746414D15D003281CD0012846
:1056F00023D196F8793003BBA06811F044F8C1B209
:1057000001200EF0E9FC28702B78002B5ED0012BD5
:105710003FF405AFFDE696F87A3073B9A06811F052
:1057200032F8C1B23846ECE796F87B302BB9A06866
:1057300011F029F8C1B20320E3E701232B70E3E75E
:1057400066683046FDF72CFD01463046FFF746FA05
:1057500001283FF4E4AEA6683046FDF721FD01467E
:105760003046FFF73BFA01283FF4D9AE012130461D
:10577000FFF740FA01283FF4DAAEA0680378303B27
:10578000012B3FF6CCAE032D7FF4C9AE10F0FBFF2A
:105790008DF80700606810F0F6FF0928029019D80C
:1057A00001216068FFF726FA01283FF4C0AE01240A
:1057B00002A88DF80C400EF02FFD0DF1070202A992
:1057C00020460EF067FD094B187028B9094800F013
:1057D00071FA9EE60221E4E70221054800F06AFA28
:1057E00002A80EF043FDA2E638000020D0060020FB
:1057F0008678010830790108B402002054060020A0
:1058000047443B79062B3FF67DAE01A252F823F0C8
:10581000095500081B5500085B5500080555000890
:105820006B5500086D560008415700082DE9FF47E9
:105830000E4615460027D2F80090DFF8388158F858
:1058400037104846FDF7A2FC4FEAC70A0446002875
:105850006AD001372A2FF2D1012106E0022E03D1AE
:10586000484610F090FF28B102213A4800F022FA91
:10587000012421E0686810F086FF092802901FD8F3
:1058800001216868FFF7B6F90128F1D0002402A8C9
:105890008DF80C400EF0C0FC20460DF1060202A966
:1058A0000EF0F8FC2C4B044618700028DCD19DF853
:1058B00006102A4800F0FEF9204604B0BDE8F08743
:1058C0003146DEE7022ECFD1686810F05CFF092870
:1058D00002901FD801216868FFF78CF90128C7D012
:1058E000002302A88DF80C300EF012FD1A4D28701E
:1058F00090B90DF1060102A80EF02AFD04462870A9
:1059000050B9BDF80610164800F0D4F902A80EF000
:105910001BFDD1E73146DEE702210E4800F0CAF94F
:1059200002A80EF011FDA3E7D04498F80430062B2E
:1059300094D0072BC6D0032B8ED10A4800F0BAF9B9
:10594000094800F0B7F9094800F0B4F9084800F038
:10595000B1F9B1E786780108D0060020F67F01088A
:10596000FE7F01083A790108088001081C800108BF
:105970003180010838000020F0B50D46012D85B0BA
:10598000044611461E46057024D107271D4B5A694F
:1059900042F480425A615A6922F480425A611A6A7A
:1059A00042F480421A621B6A019703F48043029317
:1059B000029B00230222201D009510F09DFECDE9E0
:1059C000005700230222314604F1100010F094FE2B
:1059D00005B0F0BD032DFBD107270A4B01259A69BD
:1059E00042F480229A619A6922F480229A615A6A6A
:1059F00042F480225A625B6A019703F48023039386
:105A0000039BD6E7003802402DE9F74F04789A4609
:105A10009DF83030012C06468946934601939DF847
:105A200034809DF8385042D14B4A4C49283051645B
:105A30004FF480724A4910F039FD25274422464927
:105A400002FB0412C2F804B08B46B9F1000F3CD13E
:105A5000082151614422BAF1000F40D102FB04B287
:105A6000C2F808A0019B022B4FF044030CBF4FF477
:105A70000052002203FB04B3DA60442303FB04B3A7
:105A8000B8F1000F34D1C3F810804423002D38D171
:105A900003FB04B39D614425002305FB04B4E361CB
:105AA000204603F0CEFD0246002840D0FEE7032C3E
:105AB0004FD1294A2B492C48C2F8CC104FF48072A0
:105AC0002A4910F0F3FC2727B8E7B9F1010F01D1FB
:105AD0000421BEE7B9F1020FBCD10C21B9E7BAF13C
:105AE000010F02BF4FF4805302FB04B29360B9E789
:105AF000B8F1010F0CBF4FF480624FF4C0621A611D
:105B0000C3E7012D05D14FF4807203FB04B39A6102
:105B1000C1E7022D04D103FB04B34FF40072F6E792
:105B2000032DB8D103FB04B34FF44072EFE7082113
:105B3000384602F03BFE384602F06CFE0122204659
:105B4000317805FB01B1403103B0BDE8F04F03F0FF
:105B500029BE03B0BDE8F08FF022002000380140DC
:105B60000024002000480040FC270020F0210020F5
:105B700008B572B6283010F0B6FC62B608BD000059
:105B800013B504460C4810F0B1FC80B90A4810F077
:105B90009EFC02A901F8010D0122204603F0D8FD68
:105BA000064B5B6B0BB10020984702B010BD25205F
:105BB00002F03CFEF4E700BF942700207827002085
:105BC0001B49F8B5884225D1012200F14001104659
:105BD00000F0E8FF0125174E06F12807384610F0BF
:105BE0008BFC154C38B9442303FB0543384693F826
:105BF000401010F060FC736B0BB1012098474420FB
:105C0000684300F14001214420440122BDE8F840EE
:105C100003F0C8BD01F18802904207D10122C831CA
:105C2000032000F0BFFF0325044ED5E7F8BD00BFF9
:105C30003423002078270020F0220020D4270020E1
:105C4000094B98420DD0883398420CD1032044234D
:105C50004343064803F1400101440122184403F084
:105C6000A1BD0120F3E7704734230020F02200207B
:105C7000014803F0C9BD00BF342300200B4BD3F80B
:105C8000CC201168D26849060CD552060AD593F883
:105C90000521222A03D093F80521322A02D132228B
:105CA00083F80521024803F0AFBD00BFF0220020B9
:105CB000BC2300200FB407B504AB53F8042B4FF4FA
:105CC00080710B48019310F097FF0A4B82B21B784A
:105CD0000749032B08BF08484FF6FF7318BF074852
:105CE00003F0DBFC03B05DF804EB04B0704700BFC9
:105CF000F020002074070020BC2300203423002063
:105D0000084B13B5044640F8543B00230322CDE969
:105D1000003310F0F1FC204602B0BDE8104003F063
:105D2000CDBA00BF0024014010B49DF8044059B919
:105D30008160C2B94262C3B943631CBBC460012322
:105D400010BC836203F068B8012902D14FF0807162
:105D5000EEE7022902D14FF00071E9E70329E8D10B
:105D60004FF04071E4E70122E4E7012B03D14FF04B
:105D700080538363E1E7022B0CBF4FF000534FF0D9
:105D80004053F6E74FF40063C360D8E730B5012213
:105D900085B0044692FAA2F3B3FA83F302259B007E
:105DA00003F1844303F58E031A60284A95FAA5F39C
:105DB000106895FAA5F3B3FA83F303F01F0320FAF2
:105DC00003F3D807F2D5136A204643F40073136235
:105DD000136A012203F400730093009B06230191D0
:105DE00001A9CDE9022303F02BF92268204693682C
:105DF00043F00103936003F007FA4FF0FF312046B0
:105E000003F0C9F8204603F018F9226885B29368B8
:105E100023F001039360019B103B012B02D8204625
:105E200003F04CFA094A136A23F400731362012346
:105E300093FAA3F3B3FA83F3002228469B0003F1FD
:105E4000844303F58E031A6005B030BD003802406C
:105E500037B5044602F0B9F92268184B9A4203F5A7
:105E6000F2339A691FD142F400129A619A6922F4BE
:105E700000129A615A6A22F40012002520465A62E2
:105E800010F93C1F2B46CDE90055032210F034FCDD
:105E900020462B4610F9481F0322CDE9005510F08B
:105EA0002BFC03B030BD42F480029A619A6922F45F
:105EB00080029A615A6A22F48002DEE700540040B0
:105EC000014802F0A1BB00BF002500200A4B07B526
:105ED0005A6A032142F010025A625B6A002203F000
:105EE000100301932B20019B02F060FC2B2003B0D8
:105EF0005DF804EB02F08EBC003802404FF47A7279
:105F00000D4B10B51B680D4CB3FBF2F3013B636006
:105F1000002110230A4A0138E06020462260A36075
:105F2000216102F04AFB6FF0010223681A61DA680E
:105F300042F00102DA6010BDB0010020002500200F
:105F400000100040014802F02BBB00BF00250020DC
:105F500070B588B0002203A90646144802F04DF936
:105F600000220DF10601114802F03BFE9DF80910D8
:105F70000F48632908BF01240E4A08BF0470138824
:105F80000478ADF8043034B119448B4201BF0021CC
:105F9000643301701380344601AD0FCD0FC495E812
:105FA000070084E80700304608B070BDDC0600201A
:105FB000D1060020D20600202DE9F04F8BB000283A
:105FC00039D103A8FFF7C4FF9DF81430BDF80C5079
:105FD00000939DF80F809DF810909DF811409DF85A
:105FE00015A09DF816304FF0000B002600270193F6
:105FF00025440FFA8BF3AB4229DB08F1FF38002C64
:106000006AD015F0030467D00024394DDFF8E4B0FE
:10601000E3B2434504F1010440DAE85C0BFB00F015
:10602000FDF708FA02460B4630463946FDF7C6F83A
:1060300006460F46ECE7037A0588009390F8038044
:1060400090F80490447990F809A0837ACBE71FFA7E
:106050008BF20BB193070BD121A3D3E90023304678
:106060003946FDF7ABF80BF1010B06460F46C0E7CA
:106070001DA3D3E90023F2E7E85C0BFB00F0FDF77A
:10608000D9F902460B4630463946FDF797F80646E1
:106090000F46E3B2434504F10104EDDB3C2000FB75
